{
  "mnemonic": "abandon abandon abandon abandon abandon abandon abandon abandon abandon abandon abandon abandon abandon abandon abandon abandon abandon agent",
  "derivations": [
    {
      "bip44_account": 0,
      "address_index": 0,
      "address": "0x197A1bEE163923815Ba58EaD0F14B3Fcd8C5926d",
      "private_key": "7baa95e968e65395b2b4cc341885bcfbc0d820571af180c65cc9c5019551c669"
    },
    {
      "bip44_account": 0,
      "address_index": 1,
      "address": "0xFaC7f183C69892E7379202C7E440d23b84d909bf",
      "private_key": "12bbb3776db944eaf610e68d9f70416034caf0033ea0149bb135de6e129bddef"
    },
    {
      "bip44_account": 1,
      "address_index": 0,
      "address": "0xf9E2301a1C62C5B7Bcaf5f42EA5D436098BB99B1",
      "private_key": "735c368912a68064d227aff1f00292910e5f31c8a2111e41d59aa8b33aa7c6c6"
    },
    {
      "bip44_account": 1,
      "address_index": 5,
      "address": "0x48C4401ce3cd5BfcEa3f671462A47963E767546A",
      "private_key": "65a1afabaaf8cf1ebf32372d5b40e48774e4f71d4765cd69a54b0b1ca782ee88"
    }
  ],
  "sign": {
    "tx": {
      "chainId": 1,
      "nonce": 0,
      "from": "0x197A1bEE163923815Ba58EaD0F14B3Fcd8C5926d",
      "to": "0x000000000000000000000000000000000000dEaD",
      "value": 1000000000000000,
      "data": "0x",
      "gas": 21000,
      "gasPrice": 20000000000
    },
    "tx_hash": "0xa3ba4f5f8e6d27a5768764e38c49c92da7aa27fa739f2c37d292459560b1e5a1",
    "raw_transaction": "0xf86b808504a817c80082520894000000000000000000000000000000000000dead87038d7ea4c680008025a0631421196f03b2272bf7d8e39d4a6e8619af3324de9745a315364273992ab2c8a00a3f085bd84125d75a22d1c72181ee4572e9142da48af8badfaa40deb99b15a7"
  }
}